:400000000080002011000000150F0000150F000080B500AF024A034B1B68136000F0AEFFBC760040FA46004010B5054C237833B9044B13B10448AFF300800123237010BD22
:40004000B081FF1F0000000080970000084B10B51BB108480849AFF300800848036803B910BD074B002BFBD0BDE81040184700BF0000000080970000B481FF1F0881FF1FC3
:400080000000000080B584B000AF62B600F032FD00F026F800F01CFC3B46184600F0B6FD3B460FCB00F0AEF900F01AFC4FF47A7001F0FCF9FAE700BF80B582B000AF7860C0
:4000C000786800F06BF80346002B05D0786800F06BFC786800F0CCFB0837BD4680BD00BF80B500AF01F006FC01F000FB01F0E4FB114840F2266100F02DF8104840F266418D
:4001000000F028F80E4840F2665100F023F80D4840F2666100F01EF80B4840F6660100F019F80A484FF4007100F014F8084840F2012100F00FF880BD5892FF1F6892FF1F26
:400140008892FF1F7892FF1F3892FF1F4892FF1F2892FF1F80B485B000AF78600B467B807B687A889A807B6808229A717B6800221A600023FB7307E0FB7B7A681344FF224D
:40018000DA71FB7B0133FB737B689B79FA7B9A42F2D31437BD465DF8047B704780B584B000AF78600023FB607B689B8840F26652934231D040F2665293420BDC40F20122C7
:4001C000934247D040F2664293421FD0B3F5007F3AD045E040F26662934223D040F26662934204DC40F22662934209D038E040F2667293421CD040F6660293421ED02FE0F3
:400200001B48796800F042F8F8602CE01948796800F03CF8F86026E01748796800F036F8F86020E01548796800F030F8F8601AE01348796800F02AF8F86014E011487968F6
:4002400000F024F8F8600EE00F48796800F01EF8F86008E00C48796800F018F8F86002E00123FB6000BFFB6818461037BD4680BD5892FF1F6892FF1F8892FF1F1892FF1F99
:400280007892FF1F3892FF1F4892FF1F80B489B000AF7860396000237B773B689B883B823B689B79BB743B681B68FB600023FB770CE0FB7FFA7F39680A44D27907F12001E3
:4002C0000B4403F80D2CFB7F0133FB77BB7CFA7F9A42EED30023FB7716E0FA7F7B7F13447A7FB97C4908C9B21144FA7F8A1A013A07F120010A4412F80D1C3A6813440A462F
:40030000DA71FB7F0133FB773B689B795B08DBB2FA7F9A42E1D304237B770023FB7716E0FA7F7B7F13447A7FB97C4908C9B21144FA7F8A1A013A07F120010A4412F80D1CF3
:400340003A6813440A46DA71FB7F0133FB773B689B795B08DBB2FA7F9A42E1D30023FB772EE0FB7F7A681344DA79FB7F39680B44DB799A4221D03B689A887B689A803B6880
:400380009A797B689A713B681A687B681A600023BB770BE0BB7FBA7F39680A44D1797A6813440A46DA71BB7F0133BB773B689B79BA7F9A42EED3012308E0FB7F0133FB77A1
:4003C0003B689B79FA7F9A42CBD3002318462437BD465DF8047B704780B500AF012001F05BFD00F061FA03F0E3FB40F6B83001F05DF801F04BF8FEE780B500AF00F088F9AD
:4004000080BD00BFF0B5A7B006AF3C4684E80F0004F026FB03F0CCFB504803F07BFB04F0A5FB4F4804F006FC06F01AFE04F030FD4C4B01221A7006F0CFFF0346012B40F045
:400440008780022006F006FE474806F007FB0346102B09D0444806F013FC0346002B03D0404B00221A7076E03B460FCB00F088F8BB891D463B781C467B781A4607F16003DB
:400480000092184639492A46234608F075FC07F16003184606F0E2FA0346102B0BD007F16003184606F0ECFB0346002B03D02D4B00221A704FE0BB899E463B781E467B783C
:4004C0001D46BB781C46FB7818463B79194607F1200207F1600300960195029403900491104623491A46734608F046FC07F120031846204906F0D6FE02461F4B1A601E4B6B
:400500001B68002B04D1174B00221A7000BF22E0BB89BB823B789BB2FB827B789BB23B83BB789BB27B83FB789BB2BB833B799BB2FB8307F1140207F110031046194606F0AE
:40054000EBFF3B6907F120021046194607F020F80A4807F0A7F88437BD46F0BDD9030000F9030000CC81FF1F98970000A0970000B8970000E097000098D2FF1FE49700004A
:4005800090B59BB000AF3C4684E80F005B485C4906F088FE02465B4B1A605A4B1B68002B00F0A980574B1A6807F1100310461946402206F006FF07F110031846524908F02A
:4005C000FFFB7866786E08F093FB0346A7F86230B7F862300C2B04D8B7F86230DBB287F850300020484908F0EBFB7866786E08F07FFB0346A7F86230B7F862301F2B04D876
:40060000B7F86230DBB287F8513000203E4908F0D7FB7866786E08F06BFB0346A7F86230B7F86230632B04D8B7F86230A7F85C3012E0B7F8623040F26B7293420CD9B7F81D
:400640006230324AA2FB03125209642101FB02F29B1A9BB2A7F85C3000202B4908F0B0FB7866786E08F044FB0346A7F86230B7F86230172B04D8B7F86230DBB287F85230E3
:400680000020214908F09CFB7866786E08F030FB0346A7F86230B7F862303B2B04D8B7F86230DBB287F853300020174908F088FB7866786E08F01CFB0346A7F86230B7F876
:4006C00062303B2B04D8B7F86230DBB287F854300C4B1B68184606F01FFD07F150030FCB00F0AEFA3C4607F150030FCB84E80F00024806F0EDFD6C37BD4690BD84970000F4
:40070000E897000098D2FF1FEC9700001F85EB512DE9F0439BB008AF4D4B1B78002B00F092800023A7F8463004F0DAFA034687F84530484B00221A8071E0464B1B88464A0B
:400740001B0113449B889946424B1B88424A1B0113441A68414B9B1A3E4A12883E4912010A44D27990463B4A12883B4912010A440132D2799446374A1288374912010A448F
:400780000232D2799646334A1288334912010A440332D27916462F4A12882F4912010A440432D27915462B4A12882B4912010A440532D2791446274A1288274912010A44AA
:4007C0000632D2791046234A1288234912010A440732D27911463A1DCDF80080CDF804C0CDF808E00396049505940690079110461B494A4608F0C0FA0346A7F84630194BE8
:400800001968B7F946303A1D084611461A4606F092FF104B1B8801339AB20E4B1A800D4B1A88114B1B889A4287D3104806F03AFF084B00221A800C4B00221A8097F84530E1
:40084000184604F051FA4C37BD46BDE8F08300BFCC81FF1FCE81FF1F9892FF1F002E9302F497000098D2FF1FD081FF1FE497000090B482B000AF7860094B1B88094A1B013B
:400880001A447B6814460FCB84E80F00044B1B8801339AB2024B1A800837BD4690BC7047D081FF1F9892FF1F80B500AFFFF730FF054B1B68184606F02FFC044806F0F2FE66
:4008C000024806F0C5FE80BD98D2FF1FE497000080B500AF0020002101F0F8FA80BD00BF80B500AF03F0BEFE03A1D1E9000100F007F880BDAFF3008017E9524100A2130029
:40090000F0B585B000AFC7E900010021F9600021F9601BE0F968C1F1070EF968CC00D7E90001C4F12006A4F1200520FA04F201FA06F6324321FA05F52A4321FA04F3D0B251
:40094000064901F80E00F9680131F960F9680729E0DD00BF1437BD46F0BD00BFD481FF1F80B485B000AF786039600023FB730023BB730323BB7309E0BB7B7A6813441A7852
:40098000FB7B1344FB73BB7B0133BB73BA7B3B689A42F1DBFB7BDB43FB73FB7B18461437BD465DF8047B704780B582B000AF7860786800F003F80837BD4680BD80B58CB08C
:4009C00000AF78607E233B7300237B731D23BB731023FB7300233B743B4B1B787B743A4B5B78BB74384B9B78FB74374BDB783B75354B1B797B75344B5B79BB75324B9B79FE
:400A0000FB75314BDB793B76FF237B76FE23BB760023FB7600233B777B689B881B0A9BB2DBB27B777B689B88DBB2BB777B681B681B0EDBB2FB777B681B681B0CDBB287F814
:400A400020307B681B681B0ADBB287F821307B681B68DBB287F822307B68DB7987F823307B681B7A87F824307B685B7A87F825307B689B7A87F826307B68DB7A87F82730BF
:400A80007B681B7B87F828307B685B7B87F829307B689B7B87F82A30FF2387F82B300A2387F82C3007F10C0318462121FFF758FF034687F82D3007F10C031846222103F0CB
:400AC000B5FE3037BD4680BDD481FF1F90B585B000AF074C3B46184600F072F93B460FCB84E80F0000F054F81437BD4690BD00BF9CD2FF1F90B587B000AF03F0C7F8682016
:400B0000002103F0AFFA0E2003F036FB402003F033FB03F005FB6820002103F0A3FA022003F02AFB03F0FCFA6820012103F09AFA002003F061FB0346FB7503F0F1FA682017
:400B4000002103F08FFA022003F016FBFB7D43F04003DBB2184603F00FFB03F0E1FA0A4803F088FB03F00AFC03F0B0FC074C3B46184600F025F93B460FCB84E80F0000F0A8
:400B800007F81C37BD4690BDCD0A00009CD2FF1F80B586B000AF04F0A3F80346FB754FF480733B810823BB72174B9B687B600023FB72154B9B899BB21B0A9BB2DBB23B7336
:400BC000114B9B899BB2DBB27B730F4B1B78DBB2BB730D4B5B78DBB2FB730B4B9B78DBB23B74094BDB78DBB27B74074B1B79DBB2BB743B1D1846FFF75FFAFB7D184604F0A6
:400C000073F81837BD4680BD9CD2FF1F90B587B000AF7861094C3B46184600F0D1F83B460FCB84E80F007B69044A1C4613460FCB84E80F0078691C37BD4690BD9CD2FF1F15
:400C400090B587B000AF3C4684E80F006820002103F008FA002003F08FFA3A79574BA3FB0213D9080B469B000B445B00D31AFB753B79524AA2FB0323DB08DBB21B01DAB20B
:400C8000FB7D1343DBB2FB75FB7D184603F074FAFA784A4BA3FB0213D9080B469B000B445B00D31AFB75FB78444AA2FB0323DB08DBB21B01DAB2FB7D1343DBB2FB75FB7D85
:400CC000184603F059FABA783C4BA3FB0213D9080B469B000B445B00D31AFB75BB78374AA2FB0323DB08DBB21B01DAB2FB7D1343DBB2FB75FB7D184603F03EFA03F010FAB8
:400D00006820002103F0AEF9042003F035FA7A782A4BA3FB0213D9080B469B000B445B00D31AFB757B78254AA2FB0323DB08DBB21B01DAB2FB7D1343DBB2FB75FB7D18465E
:400D400003F01AFA3A781D4BA3FB0213D9080B469B000B445B00D31AFB753B78174AA2FB0323DB08DBB21B01DAB2FB7D1343DBB2FB75FB7D184603F0FFF9BA890F4BA3FB15
:400D80000213D9080B469B000B445B00D31A9BB2FB75BB89094AA2FB0323DB089BB21B01DAB2FB7D1343DBB2FB75FB7D184603F0E3F903F0B5F91C37BD4690BDCDCCCCCCE6
:400DC00090B589B000AF78606820002103F04AF9002003F0D1F903F0A3F96820012103F041F9012003F008FA0346FB77FB7F03F00F03DBB23B743A7CFB7F1B09DBB2194600
:400E000089000B445B00DBB21344DBB23B74012003F0F2F90346FB77FB7F03F00F03DBB2FB73FA7BFB7F1B09DBB2194689000B445B00DBB21344DBB2FB73012003F0DCF931
:400E40000346FB77FB7F03F00F03DBB2BB73BA7BFB7F03F03F031B11DBB2194689000B445B00DBB21344DBB2BB73012003F0C4F90346FB77012003F0BFF90346FB77FB7F22
:400E800003F00F03DBB27B737A7BFB7F1B09DBB2194689000B445B00DBB21344DBB27B73012003F0A9F90346FB77FB7F03F00F03DBB23B733B7B3B73002003F09DF9034620
:400EC000FB77FB7F9BB203F00F039BB23B833A8BFB7F1B09DBB29BB2194689000B445B009BB213449BB23B833B8B03F5FA639BB23B8303F015F903F095FA03467B617B687A
:400F00001C4607F10C030FCB84E80F0078682437BD4690BD80B500AF07F0EEFE03461B680C2B00D1FEE7FEE780B584B000AF7860104B1A687B6813441A460F4BD31AB3F5AD
:400F4000805F09DC0B4B1B68FB600A4B1A687B681344084A136007E007F0CEFE02460C2313604FF0FF33FB60FB6818461037BD4680BD00BF0C81FF1F60D4FF1F80B586B0D4
:400F800000AF224B7B61224B3B61204B7B6135E03B691B68FB603B695B68BB603B699B683B6000237B600CE0FB681A68BB681A60BB680433BB60FB680433FB607B6804339E
:400FC0007B607A683B689A42EED13B69DB683B6000237B6008E0BB6800221A60BB680433BB607B6804337B607A683B689A42F2D13B6910333B617B69013B7B617B69002BB3
:40100000C6D107F07FFEFFF73DF8FEE701000000309E000080B582B000AF174B174A1A60174A174B1B6843F40073136000237B600FE07B68032B04D8124A7B6852F823305A
:4010400000E0114B11497A6841F822307B6801337B607B682F2BECD90D4B1B78DAB20D4B1A700D4B094A1A6000F046F90B4B00221A600837BD4680BD0CED00E00004FA057F
:4010800014ED00E000000000150F00000080FF1FBC7600400481FF1F08ED00E00081FF1F80B582B000AF78603960786800213A6807F059FE0837BD4680BD00BF80B584B0E5
:4010C00000AFF860B9607A60F868B9687A6807F03FFE1037BD4680BD80B483B000AF0346FB71FEE780B487B000AF7860396000233B6100237B6127E07B699B007A68134420
:401100001B68BB60BB68FB73BB6823F0FF03BB6014E03B695B003A6813441B781A46BB68134419463B695B003A6813445B780B703B6901333B61FB7B013BFB73FB7B002BFA
:40114000E7D17B6901337B617B69252BD4D91C37BD465DF8047B704780B582B000AF394B00221A80384B58221A70384B07221A80374B18221A70374B2F221A80364B19226F
:401180001A70364B45F6BF521A80354B18221A70344B06221A70344B52221A70334B344A1278D2B21A70334B4FF4E1621A80324B41F251221A800023FB7019237B6014E0C4
:4011C000FB785B00DAB22D4B1B78DBB203F00103DBB21343DBB203F00303FB704FF4F07003F076FD7B68013B7B607B68002B02D0FB78032BE4D17B68002B02D10320FFF7FF
:401200006BFF1F4B4FF480721A801D4B07221A701C4B00221A701C4B48221A70184B00221A701A4B00221A70194B02221A70194A184B1B78DBB243F00F03DBB213700837D6
:40124000BD4680BD80400040824000408440004086400040884000408A4000408C4000408E4000400043004000420040A14600400F01004922420040204200402542004084
:401280000440004006400040084000400940004001400040A243004080B483B000AF0F4B1B78FB710E4AFB7903F00703DBB213700C4AFB791B09DBB213700B4B40221A70E5
:4012C0000A4B04221A700A4B20221A70094B44221A700C37BD465DF8047B7047CF0100496E5800406F5800401D510040C85A0040CB5A00407658004080B582B000AF72B6CC
:40130000434A434B1B78DBB243F00403DBB213700023FB7113E0FA7913465B0013445B003C4A13443B603B681A683B689B889BB210461946FFF7B4FEFB790133FB71FB7938
:40134000062BE8D94FF090403349FFF7CBFE334B40F203121A80324A314B1B78DBB243F00203DBB213702F4A2E4B1B78DBB243F00203DBB213702C4A2B4B1B78DBB243F0D9
:401380004003DBB21370294A284B1B78DBB243F01003DBB21370264826490822FFF78EFE254826490822FFF789FE254825490A22FFF784FE244825490822FFF77FFE244810
:4013C00024490A22FFF77AFE234824490822FFF775FE234823490822FFF770FE224A224B1B78DBB243F00803DBB213701F4B01221A70FFF7B1FE1D4B81221A70FFF74CFF3D
:401400001B4809490E22FFF759FE0837BD4680BDE846004048980000980000484A5800400350014013500140A0430040C243004002510040AC0A0048C2510040B40A004861
:40144000F0510040BC0A004812510040C80A004820510040D00A004852510040DC0A004862510040E40A00482243004000480040B043004080B483B000AF0346FB7101BE29
:401480000C37BD465DF8047B704700BF80B400AF054A054B1B78DBB243F00103DBB21370BD465DF8047B7047F646004080B582B000AF786008E00C4B1B68184603F008FCA4
:4014C0007B68A3F500437B607B68B3F5004FF2D8064B1B687A6802FB03F3184603F0F8FB0837BD4680BD00BF1C81FF1F1481FF1F80B582B000AF0346FB80FB88044A1278E1
:4015000002FB03F3184603F0E3FB0837BD4680BD1881FF1F80B584B000AF03463960FB710F4B1B68FB60FB791F2B02D90020FFF7A1FFFB7903F01F0310339B00FA68134446
:401540001B68BB60FB7903F01F0310339B00FA6813443A681A60BB6818461037BD4680BD08ED00E080B582B000AF03460A46FB711346BB71BB79072B02D90020FFF77AFF44
:40158000FB791F2B02D90020FFF774FFFB7903F01F0303F1604303F56443BA795201D2B21A700837BD4680BD80B483B000AF7860264B1B78DBB21A467B681A60244B1B78F9
:4015C000DBB21B027A6812681A437B681A60214B1B78DBB21B047A6812681A437B681A601D4B1B78DBB21B067A6812681A437B681A607B680433194A1278D2B21A60184B43
:401600001B78DBB21A027B6804337968043109680A431A60134B1B78DBB21A047B6804337968043109680A431A600F4B1B78DBB21A067B6804337968043109680A431A6000
:401640000C37BD465DF8047B704700BF0301004904010049EC460040020100490101004900010049050100490601004980B582B000AF0023FB710023BB7112E0BA791346DB
:401680005B0013449B00174A1344184600F012FB0346002B02D00123FB7105E0BB790133BB71BB79072BE9D9FB79002B15D10023BB710FE0BB791B010B4A1344184600F046
:4016C00083FA0346002B02D00123FB7105E0BB790133BB71BB790F2BECD9FB7918460837BD4680BD74980000D498000080B582B000AF4FF4F0537B600123FB700123BB70CD
:4017000003F0EEFA03467B703D4A3D4B1B78DBB243F00103DBB213703A4A3A4B1B78DBB243F00103DBB213707B78184603F0DCFA354A354B1B78DBB223F00103DBB2137054
:4017400002E07B68013B7B607B68002B06D02E4B1B78DBB203F00103002BF2D17B68002B49D02A4B4FF480321A6010202849FFF7D1FE10200721FFF7F5FE022000F0DAF895
:401780000346002B1CD1012000F0F6F80346002B16D10A2003210022002300F023F90346002B0DD1012000F087F90346002B07D1002000F0B7F90346002B01D10023BB704C
:4017C000BB78002B17D1FFF751FF0346002B12D141F2010000F0DCF90346002B0BD10A4B00221A70084B1B78DBB203F00103002B01D10023FB70FB7818460837BD4680BD77
:40180000A6430040B643004010A0004080E100E0A51D000080B582B000AF4FF410737B600123FB7003F05CFA0346BB701D4A1D4B1B78DBB243F00103DBB213701A4A1A4B51
:401840001B78DBB243F00103DBB21370BB78184603F04AFA154B41F201021A6000F04AF8134B4FF480321A60124A124B1B6843F00103136002E07B68013B7B607B68002B5A
:4018800005D00C4B1B6803F00103002BF3D07B68002B01D00023FB70FB7818460837BD4680BD00BFA6430040B643004000A0004000E100E010A0004080B582B000AF0023EC
:4018C000FB710B4B1B78002B03D1FFF70FFF0346FB71FB79002B06D1054B01221A70FFF799FF0346FB71FB7918460837BD4680BDDC81FF1F80B483B000AF0123FB710C4A5D
:401900000B4B1B78DBB243F00103DBB21370084B1B78DBB203F00103002B01D00023FB71FB7918460C37BD465DF8047B704700BF04A0004080B485B000AF0346FB800223AE
:40194000FB73FB881BB2002B0CDB0123FB73094AFB881380074B1B889BB2FA889A4201D10023FB73FB7B18461437BD465DF8047B704700BF16A0004080B485B000AF0346D6
:40198000FB710123FB73FB79002B11D1144A144B5B78DBB223F01003DBB25370104B5B78DBB203F01003002B13D10023FB7310E00B4A0B4B5B78DBB243F01003DBB2537023
:4019C000074B5B78DBB203F01003002B01D00023FB73FB7B18461437BD465DF8047B704714A0004090B484B000AF0446084611461A462346FB710346BB710B467B711346AB
:401A00003B710223FB73FB79012B4CD9FB790F2B49D8BB79012B02D9BB79072B05D93B79002B40D1BB79012B3DD17B79032B3AD87A79FB799A4236D87A79BB799A4232D864
:401A40000123FB731B4B5B78BB73BB7B23F00F03BB73BA7BFB791343BB73164ABB7B5370144B5B78DBB2BA7B9A421CD10023BB733B79002B01D00223BB73BB795B01DAB231
:401A80007B799B00DBB21343DAB2BB7B1343BB73084ABB7B1370074B1B78DBB2BA7B9A4201D10023FB73FB7B18461037BD4690BC704700BF14A0004080B485B000AF034648
:401AC000FB710123FB73FB79002B11D1144A144B1B78DBB223F01003DBB21370104B1B78DBB203F01003002B13D10023FB7310E00B4A0B4B1B78DBB243F01003DBB2137022
:401B0000074B1B78DBB203F01003002B01D00023FB73FB7B18461437BD465DF8047B704714A0004080B485B000AF0346FB710123FB73FB79002B11D1144A144B1B78DBB242
:401B400023F00103DBB21370104B1B78DBB203F00103002B13D10023FB7310E00B4A0B4B1B78DBB243F00103DBB21370074B1B78DBB203F00103002B01D00023FB73FB7BBE
:401B800018461437BD465DF8047B704714A0004080B485B000AF0346FB800123FB73094AFB881380074B1B889BB2FA889A4201D10023FB73FB7B18461437BD465DF8047B2A
:401BC000704700BF04A0004080B485B000AF78600123FB737B681B785A01354B13441A467B685B6843F0801313607B681B785A012F4B13441B6803F07F127B685B6823F0C0
:401C000080139A424DD17B681B785A01284B134410337A6892681A607B681B785A01244B134410331A687B689B689A4239D17B681B785A011E4B134414337A68D2681A604D
:401C40007B681B785A011A4B134414331A687B68DB689A4225D17B681B785A01144B134418334FF0FF321A607B681B785A01104B134418331B68B3F1FF3F12D17B681B78CE
:401C80005A010B4B13441C3300221A607B681B785A01074B13441C331B68002B01D10023FB73FB7B18461437BD465DF8047B7047A0A0004080B485B000AF78600123FB73A8
:401CC0007B681B781A011B4B13441A467B685B6843F4000343F0080313607B681B781A01144B13441B68144A1A407B685B6823F4000323F008039A4215D17B681B781A01F2
:401D00000C4B134404337A6892681A607B681B781A01084B134404331A687B689B689A4201D10023FB73FB7B18461437BD465DF8047B704720A00040F7007F0080B582B0C5
:401D400000AF0123BB80144B10225A700023FB711BE0124B1B889AB2BB8813409BB2002B0DD0FB795A010E4B13441B78DBB203F02003002B03D0FB79184600F021F8BB8868
:401D80005B00BB80FB790133FB71FB790F2BE0D90837BD4680BD00BF00A0004008A00040A0A0004080B500AF044B5B78DBB203F01003002B01D0FFF7C1FF80BD00A0004024
:401DC00080B588B000AF0346FB71FB795A01314B13441B78DBB203F00103002B57D0FB795A012C4B13449B78DBB203F010031B11002B08D0FB795A01264B134404331B6844
:401E0000DB089BB207E0FB795A01224B134404331B685B0D9BB2BB81FB795A011D4B13449B78DBB203F00F03DBB2BB7302F0FAFA0346BB600023FB7711E0FA7FFB79590148
:401E4000144B0B44F97F0B441B7AD9B207F1200313440A4603F8112CFB7F0133FB77BB7BFA7F9A42E9D307F10803BB61B869FEF723F9FB795A01074B1344FA795101054A8F
:401E80000A441278D2B242F00102D2B21A702037BD4680BDA0A0004080B485B000AF0346FB71094B1B78DBB203F07F03FB730649FB79DB01DAB2FB7B1343DBB20B701437FE
:401EC000BD465DF8047B70471051004080B582B000AF03460A46FB711346BB71084B1B78002B04D100F00EF8054B01221A70FA79BB791046194600F0D5F80837BD4680BDA2
:401F0000DD81FF1F80B582B000AF02F0E9FE0346FB71534A524B1B78DBB243F00103DBB21370504A4F4B1B78DBB243F00103DBB213704D4B01221A704C4B02221A704C4A25
:401F40004B4B1B78DBB203F07F03DBB213700020FFF7CEFA474A474B1B78DBB223F00603DBB21370444A444B1B78DBB223F02003DBB213703F4A3F4B1B78DBB243F00103EC
:401F8000DBB213700120FFF7B3FA2820FFF7B0FA3A4A3A4B1B78DBB203F07F03DBB21370364A364B1B78DBB223F04003DBB21370304A304B1B78DBB243F00203DBB21370D3
:401FC0000220FFF795FA2B4A2A4B1B78DBB243F00403DBB213702A4B00221A70294B00221A70FB79184602F07FFE17200721FFF7B9FA17202449FFF78DFA18200721FFF7E5
:40200000B1FA18202149FFF785FA15200721FFF7A9FA15201E49FFF77DFA00200721FFF7A1FA00201B49FFF775FA01200721FFF799FA01201849FFF76DFA02200721FFF72C
:4020400091FA02201549FFF765FA0C200721FFF789FA0C201249FFF75DFA0837BD4680BDA5430040B54300409D60004009600040106000409443004012600040F851004098
:402080008460004085600040FD2A0000E9230000F12A0000092A0000512A00009D2A0000092B000080B582B000AF03460A46FB711346BB712E4AFB7913702E4B00221A70AC
:4020C0002D4B00221A702D4B00221A702C4B00221A702C4B00221A702B4B00221A702B4B00221A702A4B4FF400021A60284B4FF080721A60264B4FF400121A60244B0122EA
:402100001A60234B02221A60214B04221A60BB79002B02D0012B09D011E01E4A1D4B1B78DBB223F00103DBB2137011E0194A194B1B78DBB243F00103DBB2137008E0154A69
:40214000144B1B78DBB243F00103DBB2137000BF114B03221A70114B80221A70012002F0B7FD0F4B04221A700837BD4680BD00BF57D3FF1F56D3FF1FC8D2FF1FC9D2FF1F38
:40218000CAD2FF1F5AD3FF1FCBD2FF1FC7D2FF1F00E100E00960004028600040086000401260004080B400AF0F4B00221A700F4B00221A700E4B00221A700E4B00221A7023
:4021C0000D4B00221A700D4B00221A700C4B00221A700C4B03221A700B4B80221A70BD465DF8047B704700BF56D3FF1FC8D2FF1FC9D2FF1FCAD2FF1F5AD3FF1FCBD2FF1F87
:40220000C7D2FF1F286000400860004080B582B000AF0023FB71324B1B79DBB2184600F069F80346BB712E4B1B78DBB2DBB25BB2002B16DA2A4B5B78DBB2212B00D00FE0E2
:40224000284B07221A80BA791346DB009B1A264A1344244A536000F041FA0346FB7100BF38E01F4B5B78DBB2202B02D0222B1AD030E01C4B07221A80BA791346DB009B1AF9
:40228000194A1344174A5360BB79BA7917498A5CD2B242F00102D1B2144AD15400F09EFA0346FB7116E0BB790D4A9278D2B291B20F4A22F81310BB79BA790C498A5CD2B299
:4022C00042F00202D1B2094AD15400F023FB0346FB7100BFFB7918460837BD4680BD00BF00600040D8D2FF1F2081FF1FBCD2FF1FC0D2FF1F80B485B000AF0346FB710023A8
:40230000FB73FF23BB7317E0FB7B104AD35C7B737A7B0F4913465B0013449B000B4408339B78DBB2FA799A4203D1FB7BBB730223FB73FB7B0133FB73FB7B012BE4D9BB7BD7
:4023400018461437BD465DF8047B7047B4D2FF1FE8D2FF1F80B485B000AF78600B46FB701346BB707B68DB7803F00303FB737B689B78DBB25BB2002B1ADAFB7B032B0AD0B0
:40238000BB7803F001031549FA78CA54BB7843F00103BB701BE0BB789B08DBB203F001030F49FA78CA54BB7843F00403BB700EE0FB7B032B0BD0BB785B08DBB203F0010314
:4023C0000849FA78CA54BB7843F00203BB70BB7818461437BD465DF8047B7047ACD2FF1FB4D2FF1FB0D2FF1F80B582B000AF374B1B78BB71BB7903F01003002B63D0012309
:40240000FB71BB795BB2002B13DABB7903F00F03012B02D00023FB711DE000F061F82C4B1B78DBB2DBB25BB2002B14DA0023FB7111E0BB7903F04003002B02D000F094F81E
:4024400009E0BB7903F02003002B02D000F0B2F801E00023FB71FB79002B34D01B4B1B78BB71BB795BB2002B2DDB1A4B1B78DAB2194B1B78DBB21343BB71184ABB79137043
:40248000164B1B78DBB2BA799A421CD1104B1B78FB710E4B1B78DBB223F07F03BB71BB79002B0AD1094B0A4A1278D2B21A70074B1B78DBB203F00F03FB71054B1B78DBB23E
:4024C000FA799A42E2D10837BD4680BD28600040C6D2FF1FCCD2FF1FE4D2FF1F2960004080B582B000AF1D4B1B78FB711B4AFB7913701A4B1B78FB71FB795BB2002B03DABE
:40250000174AFB79137025E0022000F043FA154B1B78DBB203F06003202B08D0402B0BD0002B0ED100F0F6FA0346FB710CE002F0FBFB0346FB7107E001F0B2FA0346FB714F
:4025400002E00023FB7100BFFB79002B02D1044B03221A700837BD4680BD00BF28600040C6D2FF1F0060004080B500AF104B1B78DBB2062B19D801A252F823F0AB2500000E
:40258000AB25000099250000AB2500009F250000AB250000A525000000F0FAF806E000F0A9F903E000F0D2F900E000BF80BD00BF56D3FF1F80B500AF124B1B78DBB2062BF3
:4025C0001DD801A252F823F0FF250000FF250000E5250000FF250000EB250000FF250000F125000000F0DAF80AE000F029F907E0032000F0CFF9044B03221A7000E000BF09
:4026000080BD00BF56D3FF1FC6D2FF1F80B483B000AF0023FB71294B1B78DBB29AB2284B1B889BB213449AB2254B1A8015E02549FB79254A52681278D2B2CA54224B5B68B0
:402640000133214A5360FB790133FB711E4B1B889BB2013B9AB21C4B1A801B4B1B889BB2002B02D0FB79072BE1D9144B1B78DBB2082B02D0FB79002B0FD0144B1B78DBB2DE
:4026800083F07F03DB43DAB2104B1A70104B0F221A70104B02221A7005E00D4B02221A700C4B02221A700C4AFB791370034AFB7913700C37BD465DF8047B7047C7D2FF1F6E
:4026C00054D3FF1F00600040D8D2FF1FCCD2FF1FC6D2FF1F56D3FF1FE4D2FF1F80B582B000AF164B1B889BB2002B02D100F02EF81EE0134B02221A70124B00221A7000F022
:4027000069F9114BDB79DBB29BB21B029AB20E4B9B79DBB29BB21343FB80084B1B889BB2FA889A4202D2054AFB881380FFF76EFF012318460837BD4680BD00BFD8D2FF1F67
:4027400056D3FF1FCCD2FF1F0060004080B400AF0A4B02221A700A4B80221A70094B0F221A70094B00221A70084B00221A7001231846BD465DF8047B704700BF56D3FF1F2B
:40278000CCD2FF1FC6D2FF1FC7D2FF1FE4D2FF1F80B500AFFFF73AFF80BD00BF80B500AF0A4B1B78DBB29AB2094B1B889BB213449AB2074B1A80074B00221A70012000F086
:4027C000E9F8054B03221A7080BD00BFC7D2FF1F54D3FF1F56D3FF1FC6D2FF1F80B582B000AF124B04221A70114B80221A7000F0F1F8104BDB79DBB29BB21B029AB20D4B36
:402800009B79DBB29BB21343FB800B4B1B889BB2FA889A4202D2084AFB881380074B0B221A70012318460837BD4680BD56D3FF1FCCD2FF1F00600040D8D2FF1FC6D2FF1FCE
:4028400080B483B000AF0023BB71234B1B78DBB203F00F03DBB2023BFB71FB799AB21F4B1B889BB213449AB21C4B1A8018E01C4B5B681C49BA798A5CD2B21A70184B5B6898
:402880000133174A5360BB790133BB71FB79013BFB71134B1B889BB2013B9AB2104B1A800F4B1B889BB2002B02D0FB79002BDED10D4AFB7913700D4B1B78DBB283F07F0305
:4028C000DB43DAB2094B1A70094B0B221A700C37BD465DF8047B70472960004054D3FF1FD8D2FF1F00600040E4D2FF1FCCD2FF1FC6D2FF1F80B500AF044B00221A700120B8
:4029000000F048F8024B03221A7080BD56D3FF1FC6D2FF1F80B400AF084B06221A70084B06221A70074B80221A70074B00221A7001231846BD465DF8047B704756D3FF1F71
:40294000C6D2FF1FCCD2FF1FE4D2FF1F80B500AF0C4B1B78DBB2002B0AD00B4A094B1B78DBB263F07F03DBB21370064B00221A70064B00221A70012000F00CF8044B032280
:402980001A7080BD5AD3FF1F0860004056D3FF1FC6D2FF1F80B483B000AF0346FB710B4B9B68002B0CD0094B9B68FA791A70074B9B68074A128892B25A80044B00229A6018
:4029C0000C37BD465DF8047B704700BFD8D2FF1F54D3FF1F80B400AF094B00221A80094B9B68002B07D0074B9B6800221A70054B9B6800225A80BD465DF8047B704700BF51
:402A000054D3FF1FD8D2FF1F80B400AF0D4B01221A700D4B9B7C0D4B1B7BDBB203F00303012B08D0094BDB7BDBB283F07F03DB43DAB2064BDA73054B01225A73BD465DF8AE
:402A4000047B70470B600040FC5F0040E8D2FF1F80B400AF0E4B02221A700E4B93F822300D4B1B7EDBB203F00303012B08D00A4BDB7EDBB283F07F03DB43DAB2064BDA76EC
:402A8000054B01225A76BD465DF8047B704700BF0B600040FC5F0040E8D2FF1F80B400AF104B04221A70104B93F832300F4B93F82430DBB203F00303012B0AD00B4B93F88C
:402AC0002730DBB283F07F03DB43DAB2074B83F82720064B012283F82520BD465DF8047B704700BF0B600040FC5F0040E8D2FF1F80B400AFBD465DF8047B704780B500AF4B
:402B0000FFF750FB80BD00BF80B500AF00F0F2FF80BD00BF80B586B000AF0023FB759D4B1B78FB7100233B619B4B00221A80FB795BB2002B80F20481964B5B78DBB20A2B89
:402B400000F2FC8001A252F823F000BF952C00003D2D00003D2D00003D2D00003D2D00003D2D0000792B00003D2D0000072D00003D2D00001D2D0000864BDB78DBB2012B82
:402B80000ED100F017FEB860BB685B68824A5360814B12221A80FFF7A1FD0346FB7578E07C4BDB78DBB2022B24D17A4B9B78DBB2184600F0D5FDB860BB68002B69D0BB6865
:402BC0005B68754A5360744B5B6803331B78DBB29BB21B029AB2704B5B6802331B78DBB29BB213439AB26C4B1A80FFF777FD0346FB75A4E0674BDB78DBB2032B44D1002360
:402C0000FB73664B3B6109E03B691B78BB71BB793A6913443B61FB7B0133FB735D4B9B78DBB2FA7B9A4204D23B691B78DBB2002BEAD1584B9B78DBB2EE2B01D1584B3B6125
:402C4000544B9B78DBB2002B0BD0524B9B78DAB2544B1B7C9A4204D1534800F0A1F9524B3B613B691B78DBB2002B12D03B691B78DBB29AB2484B1A80474A3B695360FFF7A2
:402C80002DFD0346FB755AE002F04EF80346FB7555E054E0FB7903F00303002B1FD0022B00D02FE03C4B02221A803A4B1B79DBB203F07F023D4913465B0013449B000B4430
:402CC0009B78DAB23A4B1A70394B00225A70324B374A5A60FFF702FD0346FB7512E02E4B02221A80334B1B78DAB2314B1A70304B00225A70284B2E4A5A60FFF7EFFC03464E
:402D0000FB7500BF1BE0244B01221A80224B2A4A5A60FFF7E3FC0346FB7510E01E4B01221A801C4B1B79DBB21A46244B13441A4A5360FFF7D3FC0346FB7500E000BF19E122
:402D4000144B5B78DBB2013B0A2B00F2128101A252F823F05F2E0000732F0000E92E0000732F0000812D0000732F0000732F0000732F0000C52D0000732F00001B2E000045
:402D8000044B9B78DAB20E4B1A70FFF7C3FD0346FB75EFE000600040D8D2FF1F409A0000489B0000E8990000B4D3FF1FE8D2FF1FE081FF1FCBD2FF1FC9D2FF1FD4D2FF1F2A
:402DC0005AD3FF1F6E4B9B787B717B79002B06D07B79013BDBB2184600F0C2FCB8607B79002B02D0BB68002B02D17B79002B13D1644B1B78DBB27A799A4208D0614A7B79D0
:402E00001370614B01221A70012000F0C1F9FFF781FD0346FB75ADE0ACE000F009FE0346002B1BD0564B1B793B71554B1B79DAB2564B1A703B79564AD35CDAB23B79554922
:402E4000CB5CDBB29A4204D04F4B01221A7000F069FBFFF75FFD0346FB758BE08AE0FB7903F00303012B22D0012B0DD3022B00D039E0434B9B78DBB2002B04D100F040FD6B
:402E80000346FB752FE02EE03D4B9B78DBB2012B0CD1414B1B78DBB223F00203DAB23E4B1A70FFF737FD0346FB751CE01BE0344B1B79DBB2012B15D8314B9B78DBB2DB43DB
:402EC000DBB22F4A1279D2B211461046334A125CD2B21340DAB2314B5A54FFF71BFD0346FB75FFE700BF45E0FB7903F00303012B22D0012B0DD3022B00D039E0204B9B78DC
:402F0000DBB2002B04D100F08DFC0346FB752FE02EE01B4B9B78DBB2012B0CD11E4B1B78DBB243F00203DAB21B4B1A70FFF7F2FC0346FB751CE01BE0114B1B79DBB2012B2C
:402F400015D80F4B9B78DBB2DB43DBB20C4A1279D2B211461046114A125CD2B21340DAB20E4B5A54FFF7D6FC0346FB75FFE700BF00E000BFFB7D18461837BD4680BD00BF91
:402F800000600040C9D2FF1FC8D2FF1FCAD2FF1FC4D2FF1FD4D2FF1FCBD2FF1F58D3FF1FB0B58AB000AF7860314B07F114041D460FCD0FC42B682370002387F826307B6805
:402FC000002B52D07B6822221A707B68013303221A7007F10C031846FEF7E6FA022387F827303EE097F827307A68134497F8262007F128010A4412F81C2C1209D2B207F16E
:4030000028010A4412F8142C1A7097F8273001337A68134400221A7097F8273002337A68134497F8262007F128010A4412F81C2C02F00F0207F128010A4412F8142C1A7016
:4030400097F8273003337A68134400221A7097F82630013387F8263097F82730043387F8273097F82730212BBCD92837BD46B0BDD499000090B482B000AF0123FB7174E062
:403080003F4AFB791B0113440C221A70FA793D4913465B0013449B000B445B79DBB2002B1AD0FA79374913465B0013449B000B441B79DBB2DBB25BB2002B06DA324AFB79E6
:4030C0001B0113440C229A700CE02F4AFB791B01134408229A7005E02B4AFB791B01134480229A702648F979FA79264C13465B0013449B002344DB889BB2DAB20B01034457
:403100009A711F48F979FA791E4C13465B0013449B002344DB889BB21B0A9BB2DAB20B010344DA711648F979FA79164C13465B0013449B002344DB889BB2DAB20B01034434
:403140001A710F48F979FA790E4C13465B0013449B002344DB889BB21B0A9BB2DAB20B0103445A71FB790133FB71FB79082B87D9064BFF221A700837BD4690BC704700BF3A
:4031800070600040E8D2FF1FFC5F00400A60004080B58AB000AF0346FB7100237B84002387F827304CE097F82720C44913465B0013449B000B4400221A7097F82720BF4966
:4031C00013465B0013449B000B4400229A7097F82720BA4913465B0013449B000B440022DA7097F82720B54913465B0013449B000B44083300221A8097F82720AF4913468D
:403200005B0013449B000B44083300229A7097F82720AA4913465B0013449B000B4400225A7097F82720A54913465B0013449B000B4400225A7197F82730013387F827304B
:4032400097F82730082BAED9FB79002B16D0002387F825300EE097F82530994A0021D15497F82530974A0021D15497F82530013387F8253097F82530012BECD9924B1B78FB
:40328000DBB2002B00F049810023FB768E4B1B78DBB2013BDBB2184600F062FA78617B695B683B613B6907331B7803F04003002B08D0864B1B78DBB243F00103DAB2834B54
:4032C0001A7007E0814B1B78DBB223F00103DAB27E4B1A707B6908337B617B691B7887F82730012387F82530B3E07B695B68FB61002387F82630A0E097F82520FB699B78E2
:4033000003F07F039A4240F0908097F825206B4913465B0013449B000B4408331B889AB2FB699B889A420CD297F82520FB699888624913465B0013449B000B440833024699
:403340001A80FB691B781A465D4B9B5CDAB2FB695B789A4269D197F82520FB699878574913465B0013449B000B4402461A7197F82520FB69D878514913465B0013449B006C
:403380000B4402461A70FB69DB7803F00303FB73FB699B78DBB25BB2002B1ADA97F82520FB7B012B01D1072000E00D20434913465B0013449B000B4402465A7197F82520BA
:4033C0003E4913465B0013449B000B4401225A7019E097F82520FB7B012B01D1052000E00920364913465B0013449B000B4402465A7197F82520314913465B0013449B007A
:403400000B4400225A70FB699B790A2B03D0FB699B79022B09D197F82520FB7EF86911461A46FEF797FF0346FB76FB690833FB6197F82630013387F8263097F8262097F85B
:4034400027309A42FFF458AF97F82530013387F8253097F82530082B7FF647AF7B695B68FB61002387F8253016E0FB699B7803F07F02FB691878114913465B0013449B00E2
:403480000B44083302469A70FB690833FB6197F82530013387F8253097F8252097F827309A42E2D300F098F90246094B1A6000237B84012387F8273029E000BFE8D2FF1FAB
:4034C000D4D2FF1FC4D2FF1FC9D2FF1FCBD2FF1FD0D2FF1F97F82720114913465B0013449B000B447A8CDA8097F827200C4913465B0013449B000B4408331B889AB27B8C4A
:4035000013447B8497F82730013387F8273097F82730082BDED9FFF7ADFD2837BD4680BDE8D2FF1F90B585B000AF874B1B78DBB2002B00F00681844B1B78DBB2013BDBB2E9
:40354000184600F00DF978607B6808337B607B681B78FB707B685B68BB607C4B1B78BB700023FB73E8E0BB681B78BA789A4240F0DD80BB78764AD35CDAB2BB685B789A42D5
:4035800040F0D480BB689B7803F07F037B70BB68DB7803F003033B707A786E4913465B0013449B000B440022DA707A78BB689878684913465B0013449B000B4402461A712F
:4035C0007A78BB68D878634913465B0013449B000B4402461A707A78BB6898885D4913465B0013449B000B44083302461A80BB689B78DBB25BB2002B18DA7A783B78012B48
:4036000001D1072000E00D20524913465B0013449B000B4402465A717A784E4913465B0013449B000B4401225A7017E07A783B78012B01D1052000E00920464913465B006B
:4036400013449B000B4402465A717A78414913465B0013449B000B4400225A703E4A7B781B01134401229A703B4879787A78394C13465B0013449B00234408331B889BB25B
:403680001B0A9BB2DAB20B0103441A70324879787A78304C13465B0013449B00234408331B889BB2DAB20B0103445A702B4879787A78284C13465B0013449B002344DB883B
:4036C0009BB2DAB20B0103449A71244879787A78204C13465B0013449B002344DB889BB21B0A9BB2DAB20B010344DA711B4879787A78184C13465B0013449B002344DB8865
:403700009BB2DAB20B0103441A71144879787A78104C13465B0013449B002344DB889BB21B0A9BB2DAB20B0103445A71BB680833BB60FB7B0133FB73FA7BFB789A42FFF416
:4037400012AF1437BD4690BDC9D2FF1FCAD2FF1FD4D2FF1FE8D2FF1FFC5F00407060004080B485B000AF0346FB71104B1B78DBB20F4ADB0013445B68FB60FB681033FB6041
:40378000FB681B78FA799A4202D30023FB6005E0FB79DB00FA6813445B68FB60FB6818461437BD465DF8047B704700BF57D3FF1F409B000080B400AF054B1B78DBB2054A48
:4037C000DB0013445B681846BD465DF8047B704757D3FF1F409B000080B584B000AF104B1B78DBB2013BDBB21846FFF7B9FFB860BB68002B0DD0BB685B681B79FB71FB79C0
:403800000233DB00BA681344BB60BB685B68FB6001E00023FB60FB6818461037BD4680BDC9D2FF1F80B582B000AF0023FB71314B1B79DBB203F07F03BB71BB79002B53D0DE
:40384000BB79082B50D8BA79B9792B480B465B000B449B0003449B78DBB243F00103D8B2254913465B0013449B000B4402469A70BA79214913465B0013449B000B4400223A
:40388000DA70BA79B9791C480B465B000B449B0003445B78DBB243F00203D8B2164913465B0013449B000B4402465A70BA79124913465B0013449B000B441B79DBB2DBB25F
:4038C0005BB2002B06DA0D4ABB791B0113448D229A7005E0094ABB791B01134489229A70FFF718F80346FB71FB7918460837BD4680BD00BF00600040E8D2FF1FFC5F004087
:4039000080B582B000AF0023FB71464B1B79DBB203F07F03BB71BB79002B7DD0BB79082B7AD8BA79B97940480B465B000B449B0003449B78DBB223F00103D8B23A49134643
:403940005B0013449B000B4402469A70BA79364913465B0013449B000B440022DA70334ABB791B0113447F221A70BA79B9792E480B465B000B449B0003445B78DBB223F0CC
:403980000203D8B2284913465B0013449B000B4402465A70BA79244913465B0013449B000B441B79DBB2DBB25BB2002B18DABA791D4913465B0013449B000B445B78DBB2A5
:4039C000012B06D1194ABB791B0113440C229A701EE0164ABB791B0113440D229A7017E0BA79114913465B0013449B000B445B78DBB2012B06D10D4ABB791B011344082240
:403A00009A7005E0094ABB791B01134409229A70FEF780FF0346FB71FB7918460837BD4680BD00BF00600040E8D2FF1FFC5F004080B584B000AF0023FB73154B1B79BB7351
:403A4000144B1B78DBB2013BDBB21846FFF788FEB860BB685B681B79FB71BA7BFB799A4202D9BB7B022B0ED8BB7BBA7B0A498A5CD1B20A4AD154BB7B054A9278D1B2064A7B
:403A8000D1540123FB73FB7B18461037BD4680BD00600040C9D2FF1FD4D2FF1FC4D2FF1F80B582B000AF0023FB710F4B1B78DBB2DBB25BB2002B12DA0B4B5B78DBB2012B71
:403AC00000D00CE0094B0A4A5A60094B1B789AB2064B1A80FEF702FE0346FB7100BFFB7918460837BD4680BD00600040D8D2FF1F5C9B000080B400AF054B1B78DBB203F02B
:403B000040039B09DBB21846BD465DF8047B70478F45004080B582B000AF786000F03CF8786800F009F8072000F018F800F028F80837BD4680BD00BF80B485B000AF7860C9
:403B4000054B1B68FB60FB6850337A681A601437BD465DF8047B704708ED00E080B483B000AF0346FB71054AFB795B01DBB213700C37BD465DF8047B704700BF04E400E0D5
:403B800080B400AF034B10221A60BD465DF8047B704700BF00E100E080B400AF034B10221A60BD465DF8047B704700BF80E100E080B400AF034B10221A60BD465DF8047BFB
:403BC000704700BF80E200E080B500AF134B02221A70134B81221A70124B08221A70124B04221A70114B00221A70114B4FF400421A600F200721FDF7B5FC0F200D49FDF79C
:403C000089FC0D4B10221A700C4B00221A700C4B00221A700B4B00221A7080BDD6490040C8490040CA490040DB490040DC49004080E100E0B93C00005BD3FF1F5CD3FF1F0B
:403C400069D3FF1F5DD3FF1F80B582B000AF01F047F80346FB710B4A0A4B1B78DBB243F00403DBB21370084A074B1B78DBB243F00403DBB21370FB79184601F035F8083750
:403C8000BD4680BDA5430040B543004080B500AF074B1B78002B04D1FFF796FF044B01221A70FFF7D1FF034B4FF400421A6080BDE481FF1F00E100E080B582B000AFA84B77
:403CC0001B78FB71A74B1B78DBB203F04003DBB2002B00F0AC81FB7903F00103002B00F08381A04B1B78DBB2453B052B00F2788101A252F823F000BF113D0000393E0000F4
:403D0000E13F0000E13F0000113D0000273F0000FB7923F02003FB71FB7903F00A03DBB2082B46D18F4B1B78DBB2452B3AD18E4B1B78DBB2002B0FD08C4A8D4B1B681B78F2
:403D4000DBB21370864B04221A708A4B01221A70844B46221A706EE0874B1B78DBB203F00203002B0FD0854B1B78DBB243F00A03DAB2824B1A707B4B60221A70804B4FF43A
:403D800000421A6057E07F4A7E4B1B78DBB243F01003DBB213707C4B10221A70704B04221A7048E06E4B00221A706E4B4A221A701AE1FB7903F00A03DBB20A2B37D16F4BEB
:403DC0001B78DBB263F05F03DAB26C4B1A706A4B1B78DBB203F00203002B19D0614B1B78DBB203F00803002B01D0092300E00A23DAB2624B1B78DBB21343DAB25F4B1A70D2
:403E0000584B60221A705E4B4FF400421A6012E05C4A5C4B1B78DBB243F01003DBB21370594B10221A704E4B04221A70DCE00020FDF720FBD8E0D7E0FB7903F00203002BDC
:403E400042D14C4B1B78DAB2474B1B78DBB29A4214D2464A464B1B6846490978C9B20B441B78DBB213703E4B04221A70414B1B78DBB20133DAB23F4B1A7053E03E4B1B78DC
:403E8000DBB203F00203002B0FD03C4B1B78DBB243F00A03DAB2394B1A70324B60221A70374B4FF400421A603CE0364A354B1B78DBB243F01003DBB21370334B10221A701C
:403EC000274B04221A708FE02B4B1B78DBB203F00203002B0FD0294B1B78DBB263F06503DAB2264B1A701F4B60221A70244B4FF400421A6016E0234A224B1B78DBB243F0BC
:403F00001003DBB21370204B10221A70144B04221A701A4B1B78DBB263F06F03DAB2174B1A7061E060E0194B1B68194A1278D2B213440E4A1278D2B21A70154B1B78DBB2C6
:403F40000133DAB2124B1A70114B1B78DAB2114B1B78DBB29A421FD2014B10221A703EE0D74900405BD3FF1F5ED3FF1FD849004064D3FF1F5DD3FF1F5FD3FF1F5CD3FF1F14
:403F800080E100E0D6490040D949004060D3FF1F69D3FF1F68D3FF1F2C4B1B78DBB203F00203002B0FD02A4B1B78DBB243F00903DAB2274B1A70274B60221A70264B4FF4D4
:403FC00000421A600BE0254A244B1B78DBB243F01003DBB21370224B00221A7004E003E00020FDF747FA00BFFB7903F02003002B28D0184B1B78DBB203F00803002B01D0A8
:40400000012300E00223DAB2114B1B78DBB21343DAB20F4B1A70114A104B1B78DBB223F01003DBB213700B4B10221A700AE0094B1B78DBB203F01003DBB2002B02D1054B2C
:4040400010221A700837BD4680BD00BF5FD3FF1F5CD3FF1F5BD3FF1F80E100E0D6490040D749004080B485B000AF03460A46FB711346BB710223FB73244B1B78DBB2102B5E
:404080003CD1234B1B78DBB203F00803002B33D1204B4FF400421A60FB795B00FB71BB79002B07D0FB7943F00103FB71174B49221A7002E0154B45221A70174AFB79137064
:4040C000134B01221A7000BF144B1B78DBB203F00103002BF8D0114B1B78DBB203F00A03DBB20A2B05D1094B10221A700323FB7304E00023FB7301E00123FB73FB7B184619
:404100001437BD465DF8047B704700BF5BD3FF1FD949004080E100E0D8490040D749004080B483B000AF0223FB71104B1B78DBB203F00403002B12D00C4B10221A700C4BA4
:4041400004221A700B4B10221A7000BF084B1B78DBB203F02103002BF8D00023FB71FB7918460C37BD465DF8047B7047D9490040D74900405BD3FF1F80B485B000AF0346A0
:40418000FB710223FB73184B1B78DBB203F00403002B22D0154AFB791370154B04221A70144B46221A7000BF114B1B78DBB203F00103002BF8D00E4B1B78DBB203F0020319
:4041C000002B05D10B4B60221A700023FB7304E0084B60221A700323FB73FB7B18461437BD465DF8047B7047D9490040D8490040D74900405BD3FF1F80B485B000AF034677
:40420000FB710023FB73174B1B78DBB203F00403002B1FD0144B1B78DBB2492B05D1134B00221A70104B4A221A7000BF0F4B1B78DBB203F00103002BF8D00D4B1B78FB734B
:40424000FB79002B03D0094B10221A7002E0064B60221A70FB7B18461437BD465DF8047B704700BFD94900405BD3FF1FD7490040D849004080B582B000AF786000F03CF890
:40428000786800F009F8072000F018F800F028F80837BD4680BD00BF80B485B000AF7860054B1B68FB60FB6858337A681A601437BD465DF8047B704708ED00E080B483B03B
:4042C00000AF0346FB71054AFB795B01DBB213700C37BD465DF8047B704700BF06E400E080B400AF034B40221A60BD465DF8047B704700BF00E100E080B400AF034B402223
:404300001A60BD465DF8047B704700BF80E100E080B582B000AF0F4800F05CF80D4800F073F800F0DDFC0346FB710B4A0A4B1B78DBB243F01003DBB21370FB79184600F0B4
:40434000D3FC00F07FF8002000F028F80837BD4680BD00BFFF2D93029564004080B400AF054A054B1B78DBB263F07F03DBB21370BD465DF8047B70477564004080B500AF8D
:40438000054B1B78002B04D1FFF7C2FF024B01221A70FFF7E3FF80BDE581FF1F80B483B000AF0346FB71044AFB7913700C37BD465DF8047B704700BF8564004080B400AF24
:4043C000034B1B78DBB21846BD465DF8047B70476564004080B483B000AF7860034A7B6813600C37BD465DF8047B70472264004080B400AF034B1B681846BD465DF8047B49
:40440000704700BF4264004080B483B000AF7860034A7B6813600C37BD465DF8047B70470264004080B400AF044B1B78044B1B681846BD465DF8047B704700BF0264004030
:404440004264004080B500AF01E0FFF7D1FFFFF7B5FF034603F00803002BF6D180BD00BF80B582B000AF41F2873000F05BF841F2873000F073F800F033FC0346FB710A4A3C
:40448000094B1B78DBB243F01003DBB21370FB79184600F029FC00F06FF8002000F026F80837BD4680BD00BF9A65004080B400AF054A054B1B78DBB263F07F03DBB21370C2
:4044C000BD465DF8047B70477B65004080B500AF054B1B78002B04D1FFF7C2FF024B01221A70FFF7E3FF80BDE681FF1F80B483B000AF0346FB71044AFB7913700C37BD46A6
:404500005DF8047B704700BF8A65004080B400AF034B1B78DBB21846BD465DF8047B70476A65004080B582B000AF78600348796800F0DEFB0837BD4680BD00BF28650040C8
:4045400080B400AF044B1B6823F07F431846BD465DF8047B704700BF4865004080B582B000AF78600348796800F0C2FB0837BD4680BD00BF0865004080B500AF01E0FFF7AC
:40458000DFFFFFF7C3FF034603F00803002BF6D180BD00BF80B500AF114B0F221A70114B08221A6003200721FCF7DCFF03200E49FCF7B0FF00F056F90C4B00221A700C4B67
:4045C00000221A700B4B00221A7000F079F800F095F8094B00221A70084B00221A7080BD8364004080E100E0C14800006DD3FF1FB0D3FF1F6CD3FF1F8264004081640040DB
:4046000080B582B000AF00F06BFB0346FB71124A114B1B78DBB243F02003DBB213700F4A0E4B1B78DBB243F01003DBB213700C4A0B4B1B78DBB243F01003DBB21370FB795D
:40464000184600F051FB00F0A5F900F01BF800F025F80837BD4680BD93640040926400409164004080B500AF054B1B78002B04D1FFF790FF024B01221A70FFF7C1FF80BDA8
:40468000E781FF1F80B400AF034B08221A60BD465DF8047B704700BF00E100E080B400AFBD465DF8047B704780B400AF034B08221A60BD465DF8047B704700BF80E100E0BD
:4046C00080B582B000AFFFF7EFFF0A4B1B78DAB2094B1B78DBB203F00903DBB21343FB71054B00221A70FFF7CDFFFB7918460837BD4680BD62640040B1D3FF1F80B483B06C
:4047000000AF054B1B78FB71FB7918460C37BD465DF8047B704700BF6164004080B584B000AF0346FB71394B1B78FB73FB7B002B02D13F23FB7302E0FB7B013BFB73344BFD
:404740001B78DBB2FA7B9A42EDD0FFF7ADFF314B1B78DAB2304B1B78DBB203F00903DBB21343BB732C4ABB7B1370284B1B78DAB2274B1B78DBB29A420AD1274B1B78DBB287
:4047800003F00403002B03D0244AFB79137037E01F4B1B78DBB20133DAB21D4B1A701C4B1B78DBB23F2B02D9194B00221A70184B1B78DAB2154B1B78DBB29A4211D1134B4F
:4047C0001B78DBB20133DAB2104B1A700F4B1B78DBB23F2B02D90D4B00221A70104B01221A700B4B1B78DBB219460E4AFB7953540D4A0D4B1B78DBB243F00403DBB21370C8
:40480000FFF740FF1037BD4680BD00BFB0D3FF1F6CD3FF1F62640040B1D3FF1F416400406DD3FF1F70D3FF1F8264004080B584B000AF78600B46FB700023FB730CE0FB7BEE
:404840007A6813441B781846FFF768FFFB7B0133FB73FB78013BFB70FB78002BEFD11037BD4680BD80B582B000AF01E0114B1B78114B1B78DBB203F02003002BF6D100F040
:404880002FFA0346FB710D4A0C4B1B78DBB243F00103DBB21370094A084B1B78DBB223F00103DBB21370FB79184600F01DFA0837BD4680BD51640040616400409164004091
:4048C00080B483B000AF37E02A4B1B78DAB22A4B1B78DBB203F00903DBB21343FB71264AFB791370244B1B78DBB203F00403002B21D0224B1B78DBB2002B0FD1204B1B7872
:40490000DBB20133DAB21E4B1A701D4B1B78DBB23F2B06D91A4B00221A7002E0174B00221A70184B164A1278D2B21146164A525CD2B21A7000E007E0114B1B78DAB2134B81
:404940001B78DBB29A42BFD10D4B1B78DAB20F4B1B78DBB29A4207D10D4A0D4B1B78DBB223F00403DBB213700C37BD465DF8047B704700BF62640040B1D3FF1F6DD3FF1F77
:40498000B0D3FF1F4164004070D3FF1F6CD3FF1F8264004080B400AF094A094B1B78DBB243F00403DBB21370064A064B1B78DBB243F00403DBB21370BD465DF8047B704700
:4049C000A2430040B243004080B500AF002000F057F8144A134B1B78DBB223F02003DBB21370104A0F4B1B78DBB223F00403DBB213700C4A0B4B1B78DBB243F00803DBB263
:404A00001370094A084B1B78DBB223F01803DBB21370054A044B1B78DBB243F01003DBB2137080BD41580040CF5A004080B400AF094A094B1B78DBB243F00203DBB213706A
:404A4000064A064B1B78DBB243F00203DBB21370BD465DF8047B7047A7430040B743004080B500AF054B1B78002B04D1FFF7ACFF024B01221A70FFF7D9FF80BDE881FF1F47
:404A800080B483B000AF0346FB71164B154A1278D2B2D2B222F00302D1B2FA7902F00302D2B20A43D2B2D2B21A70FB79012B0AD10D4B0E4A1278D2B21A700D4B0D4A127876
:404AC000D2B21A7009E0084B0B4A1278D2B21A70074B0A4A1278D2B21A700C37BD465DF8047B70474158004032460040110100493346004015010049AF010049B701004972
:404B000080B582B000AF40F2E73000F05BF840F2E73000F073F800F0E3F80346FB710A4A094B1B78DBB243F01003DBB21370FB79184600F0D9F800F06FF8002000F026F879
:404B40000837BD4680BD00BF9965004080B400AF054A054B1B78DBB263F07F03DBB21370BD465DF8047B70477C64004080B500AF054B1B78002B04D1FFF7C2FF024B012296
:404B80001A70FFF7E3FF80BDE981FF1F80B483B000AF0346FB71044AFB7913700C37BD465DF8047B704700BF8965004080B400AF034B1B78DBB21846BD465DF8047B7047C3
:404BC0006965004080B582B000AF78600348796800F08EF80837BD4680BD00BF2B64004080B400AF044B1B6823F07F431846BD465DF8047B704700BF4B64004080B582B07F
:404C000000AF78600348796800F072F80837BD4680BD00BF0B64004080B500AF01E0FFF7DFFFFFF7C3FF034603F00803002BF6D180BD00BF80B582B000AF786000F03CF8E2
:404C4000786800F009F8072000F018F800F028F80837BD4680BD00BF80B485B000AF7860054B1B68FB60FB6854337A681A601437BD465DF8047B704708ED00E080B483B075
:404C800000AF0346FB71054AFB795B01DBB213700C37BD465DF8047B704700BF05E400E080B400AF034B20221A60BD465DF8047B704700BF00E100E080B400AF034B20229A
:404CC0001A60BD465DF8047B704700BF80E100E00230800803D000BF01380046FCD17047EFF3108072B6704780F31088704700BF80B485B000AF786039607B68FB603B6821
:404D0000DAB2FB681A70FB6801333A68120AD2B21A70FB6802333A68120CD2B21A701437BD465DF8047B704780B582B000AF1A4B1B78DBB203F00303012B02D0022B04D0C5
:404D400012E0154B1B79BB7111E0134B1B79DBB203F07F02114913465B0013449B000B4408339B78BB7102E00023BB7100BF0C4B1A68BB7913441B78022B04D1FDF746FA57
:404D80000346FB7102E00023FB7100BFFB7918460837BD4680BD00BF00600040E8D2FF1FD0D2FF1F0346002007E011F810C0BCF1FF0F04D003F800C001309042F5DB7047C9
:404DC00000220346104607E013F802C00232BCF1FF0F03D00130C0B28842F5DB704710B54FF0000C002B07DD11F8014B0CF1010C04700024447004E003D04FF0FF34047021
:404E00004470013A02D00230013BEBE7604610BDA0F161039BB2192B98BF00F0DF0070472DE9F84504460D4617460026A319AA195878A35D92F801A0AA5D43EA002042EA2E
:404E40000A2AFFF7E5FF80465046FFF7E1FF804502D00120BDE8F8850236013FE6D13846BDE8F88500230146184610F0010F4FEA5002C85C14BF42F08002D2B2013310185B
:404E80000B2BC0B2F1D1704783685B1883607047014A024B1A607047849B00003C81FF1F2DE9FF411F1E04460D4626DB1830694601F0F4F829466A46204601F077F9804665
:404EC000684601F0F5F8029BBB42F3DD98F8006006F03F066FF01A0388F80030284602F0A7F829466A46204601F060F98046684601F0DEF8013E6F46ECD1BDE8FF8110B5C1
:404F00000B46044611B901F0FEFD03465A1E1946A41804E0621AD25C202A02D1013B002BF8D1184610BD08B50B4611B901F0EBFD03460C330D2293FBF2F008BD2DE9F04754
:404F400004460D461F469DF8208016461AB9084601F0D9FD064631462846FFF7E4FF002182462022204601F08BFDFBB25745237004BF43F0400323700F23E37284F80D806A
:404F80001EB9284601F0BFFD06460D23013F5F43F61BE91905223346601CFFF720FFC719E9190622731F04F10E00FFF718FF3F18E91904F11C000222A6F10B03BDE8F047A2
:404FC000FFF70DBF2DE9F04F95B090469DF87C2081460591404619460692FFF790FF074639464046FFF79FFF1E9A064610A909F1180001F053F80D2397FBF3F203FB1273D4
:4050000007934FF0FF33354604934FF0000B9A4610AB1A4648460599039301F0C7F8039B044600286DD00278002A69D0E52A03D1184601F03DF8EBE7554527D0002D48D063
:40504000002300933A4608A841462B46FFF776FF079AE2B9227806F140039A4217DD20460378002B4CD0C37A10AC0F2B08D1204601F01EF848460599224601F097F8EFE77C
:405080002046AA4601F014F83546C1E70DB322789DF820309A420ED1601C0DF121010522FFF7BEFE38B904F10E000DF12E010922FFF7B6FE00E00120B542637B03D19B468A
:4050C000129B049301E05B4513D190B96C1EAA4611E02046FFF7C6FE58450BD1069AE37A02EA0303934205D1209B53B1049A1A6007E0AA46344610A800F0DAFF254687E79E
:405100000024204615B0BDE8F08F2DE9F8451646002204460D4600F0F1FF00285AD0204620210B2201F0ACFC0127334603E00A22013793FBF2F3092BF9DC4FF0000A19E049
:40514000287810F0800F02D04FF05F0803E001F0F5FC5FFA80F80135B8F1000F0ED0B8F12E0F0BD0404600F0B5FA18B104F8018B0AF1010AC7F107039A45E1DB7E23A04605
:4051800008F8013BE3190A2196FBF1F201FB1261303103F80119A3421646F4D100266C1C20462E2101F0D1FC054608B10126F6E786B1B8440646605D01F0C0FCC7B24FB1A2
:4051C000384600F087FA10B108F8017B01360135022EF0DDBDE8F8852DE9F04F038A89B004460D46904687692BB907F118002146626900F053FF38464146224600F0D6FFDF
:405200000646204600F054FF002E00F0C3803378002B00F0BF80E52BEDD0F27A082AEAD00F2A0CD068693146AA6900F06DFA3046294600F0F9FA238A01332382A8E003F05E
:405240003F0B96F80D904FF0000A5E4610E038464146224600F0AAFF10B94FF0010A09E0437B20464B4518BF4FF0010A00F020FF013EECD141462246384600F097FFFFF711
:40528000F1FDBAF1000FB6D14845B4D16E69CDF818B0002E59D00BF1FF39D346BA462F4620464FF0FF31FFF7EFFD22464146504600F07CFFB969431C0546079118460521A1
:4052C0000193FFF77DFD05F10E0102460491084606210292FFF774FD1C35844602212846CDF80CC00595FFF76BFD029ADDF80CC0079962445A4412189142019B09DC20461E
:40530000C9F100013D46FFF7BFFD57464FF0010A1DE0194630460522FFF744FD0499054606223018FFF73EFD4519701905990222FFF738FD28183618B9F1000F03D0834428
:4053400009F1FF39ACE73D4657464FF0000A20460699FFF799FD38464146224600F026FF0746BAF1000F05D068693946AA6900F0CBF902E00EB186F800A03846294600F05D
:4053800053FA238A2046013323820121FFF77CFD002001E04FF0FF3009B0BDE8F08F2DE9F04FA3B00C469DF8B41006930791BDF8BC30BDF8C01005461046164608930991FB
:4053C00001F0A1FBFF2800F2298130460021FFF796FD00220490B35C3B2B00F01F8104D82B3B012B00F21F8118E15B2B00F016815D2B00F013813D2B40F015810EE1002132
:4054000020220BA801F03CFB1FA831463A46FFF77CFE059813A9069A00F040FE2846214613AA00F0C3FE8246002844D00378002B41D04FF000081AF808307E2B07D008F1F2
:405440000108B8F1080F32D0002BF4D12FE0C8F1070B50461FA9CBF1070201F001FB30BB0AF1080021A9032201F0FAFA0346F0B91AF808207E2A1AD108F10108C2440246B6
:405480001AF80310013330390A209B4500FB0212F6D1D21BFF2A0AD8D308093802F0070210FA02F20BA9C85C42EA0000C85413A800F0FEFDB2E7002202F007034FF0010878
:4054C00008FA03F822A901EBD20313F85C3C18EA030802D1D21910D404E00132B2F5807FEAD10AE01FA83146FFF70FFE05981BA9069A00F0D3FDB24606E0B7F5806F00F004
:405500008D8007F580777AE7284621461BAA00F04DFE0746002836D1069B13B92B8E002B7DD121461B9A0023284600F0C1FB214602460023284600F06DFC0646204601F085
:4055400010FF002E6BD00021AA8BA06801F098FA3146059800F0B8F895F834B000260BF1FF373F1808E039462046012201F0D6FE204601F0AFFE013F0136C6EB0B03B3F16B
:40558000FF3FF0D1A7683B7823B1E52B02D04FF000080CE0B8F1000F05D10DF15C0C1BAB0FCB8CE80F00C84505D008F101081BA800F07EFDA8E71FA8FFF754FC5646824618
:4055C0000DF15C0828462146424600F0EFFD074628B34B463146049ACDF800A0FFF7AEFC204601F025FD404600F062FDB9F10109E6D121464246284600F0D8FD2E9B0899F8
:405600000093099B019102931FA92C9A079B074601F030F8204601F00BFD00E00027384623B0BDE8F08F0499013291427FF4D3AE05F1180330460593FFF775FC0027814690
:40564000DDE60C2802D0102805D102E001EB510070474800704788007047036840689B685B6AB0FBF3F0704710B5C46C436CE4B199421AD3E318994217D2013B99420CBF7D
:405680004FF0FF31013172B190F836300C2B02D0102B05D102E00905090D03E089B201E021F070411160012010BD002010BD40F6F473984201D80C2070474FF6F473984252
:4056C00094BF102020207047027F8368023902FB01307047431EDBB21F2B13D92F2811D007D826280ED002D8222809D10AE02A3804E03A2804D33F2804D95B38022801D9FB
:405700000120704700207047034638B30B2A01DD0B2200E0013A00201CE0082809D191F808C0BCF1200F0DD04FF02E0C03F801CB08E038B991F800C0BCF1050F02D1ACF168
:40574000200C04E011F800C0BCF1200F01D003F801CB01309042E0DB00221A7070472DE9F04788B005AE04460D463046114600229A469DF84490BDF84C80BDF8507000F0C8
:40578000BDFC08B1002413E020462946524600F0AEFD044660B1129B31460093109A4B46CDF80480029700F065FF284601F040FC204608B0BDE8F08710B59DF80C400394C3
:4057C000BDE8104000F078BD2DE9F04F144E87B0109DDDF848809DF84440376800950194CDF8088005937F68934682468946B84732680C4BDDF814C09A420DD060B9504638
:4058000049465A46634610951194CDF8488007B0BDE8F04FFFF7D0BF07B0BDE8F08F00BF3C81FF1F949B000070B5C37A04460B7010300D4601F0B8F9064604F10E0001F059
:40584000B3F940EA0640686004F1120001F0ACF90004A86004F1180001F0A6F9064604F1160001F0A1F940EA0640E86004F11C0001F081F9286170BD2DE9F845038A044608
:405880000E46924687692BB907F118002146626900F004FC38465146224600F087FC0546204600F005FCD5B12B78C3B1E52BF1D095F80B80B8F10F0FECD018F00808E9D149
:4058C00070692946B269FFF71FFF28463146FFF7ABFF238A404601332382BDE8F8854FF0FF30BDE8F885022201F018BD2DE9F74F04460D461E461746002A00F09B8090F88D
:4059000036001146FFF79DFEB4F81EA0A36A20FA0AFA9A45814680F08D80638E04F118089A44284651464246FFF7DDFF284601F01CFD6B7B002B7DD1A38B013B09EA03090E
:40594000AB681FFA89F909EB030B26B9226C974203D2276401E07A1C226494F83620102A0AD0202A11D1584601F005F931460746584601F00BF94EE0584601F015F9B1B2A0
:405980000746584601F00CF945E02846019301F04FFB019B17F0010F19F803701CD007F00F0242EA061209F80320A38B013B994502D00BF1010309E028460AF1010142461B
:4059C000FFF791FF284601F0D0FCAB681A78120142EA171732091DE009F80360A38B013B994502D00BF1010309E028460AF101014246FFF778FF284601F0B7FCAB681A782E
:405A000002F00F0147EA0127310A22F00F0201F00F010A431A70284601F00AFBE36BB3F1FF3F09D00FB10133E3632EB1E36B013BE36301E0012000E00020BDE8FE8F6FF0EC
:405A40007043FFF753BF70B5C36C04460E4693B1002506E0AA1820463146531CFFF746FF0135E36C626C013B9D42F3D320463146AA18FFF7E4FF00236364E364A364236575
:405A800070BD70B506460D461C460AB1FFF72EFF304629462246BDE87040FFF7D0BF2DE9F04790F8366005460C46304611469146FFF7C7FDB5F81E80AB6A20FA08F89845D1
:405AC000824602D30020BDE8F0876B8E05F118079844204641463A46FFF705FF204601F044FC18B14FF0FF30BDE8F087AA8BA168013A0AEA020A1FFA8AFA92450AEB0103AC
:405B00001AF8015001D0013309E0204608F101013A46FFF7E8FE204601F027FCA36818780C2E45EA002009D0202E0FD15D7840EA05409D7840EA0560BDE8F08719F0010F95
:405B400002D00009BDE8F0870005000DBDE8F0872DE9F34190F83630144603FB02F7828B8846D200511E0F40D71B0546B7FBF3F7002618E00E4B93F87C30022B05D1284614
:405B8000214601AAFFF770FD28B9284641462246FFF785FF0190019B0134A34205D10136B6B2013F1C46002FE4DC3046BDE8FC81D8D3FF1F2DE9F34105460E4614469846E9
:405BC0001F681CE0114B93F87C30022B05D12846214601AAFFF748FD28B9284631462246FFF75DFF0190737B0BB100240BE0AA6B019B0132934204D81BB1013F1C46002FD5
:405C0000E0D1C8F800702046BDE8FC81D8D3FF1F73B504680E4623681BB9FFF71EFD013039E0FFF71AFD236998423CBF4FF0FF3323612369B3F1FF3F04D1226801332361A8
:405C40006261E3832169E28B451A954234BF2B4613463BB16069C918C018D21A60612161E283ED1A0DB9284615E002AB43F8045D31466269A068FFF79DFF6061019B2169D3
:405C80000246C91A4D19256123B9A0683146FFF75FFFE08301987CBD13B502AC44F8043D2346FFF787FF019B002B18BF00201CBD2DE9F0410746884615461E4600243846B7
:405CC00041462A460123FFF7E7FF30B1BA6B0134944201D80546F2E7002406B134602846BDE8F0812DE9F84504460E4615461F46002B36D01C4B93F87C30022B31D190F875
:405D0000368011464046FFF79CFCB4F81CA00AF1FF3A2AEA000A4FEACA0ABAFBF8FAAA44A8460EE0204631464246FFF7B8FE50B9636C0BB9C4F84480A36C08F10108013398
:405D4000A364D045EED9A36C5BB127653B685A6922B1204631462B46FFF7C8FDE36C0133E364BDE8F88500BFD8D3FF1F2DE9F8459846274B054693F87C300F46022B1646E0
:405D8000846B19D1036D984503D0836C0BB1FFF75AFEB8F1000F0FD02B6D43450CD1EB6CAA6C9A4204D96C6C1C190133EB642CE028463946FFF747FE012E04F1010A01D96A
:405DC000564505D92E6C012E01D9564500D902263446284639462246FFF761FE50B101345445F6D902240DE0284639462246FFF756FE30B92846394622464346FFF772FF49
:405E000003E00134B442EFD300242046BDE8F885D8D3FF1FF8B507460E461546FFF7A6FF044628B1384631462A462346FFF729FE2046F8BDB2F1FF3F73B504460D4614D026
:405E4000561A013611D001F081FA084B00211A8AA06800F015FE022300936068A3682946324600F0C3FF0023E3737CBDD8D3FF1F2DE9F84F984690F8363004460C2B0D466F
:405E800016465AD04FF0FF3AD1463CE094F836003146FFF7D6FBB4F81CB0678E0BF1FF3B10EA0B0BE38B1DD1D840013F3F1802222846394601F032FAA38BAA689B0852F898
:405EC0000B1079B9013B0BF1040BF8D13BE0494628465246FFF7AEFFB946BB46284601F0AAF8DA462946324601232046FFF7D4FE29460746324620460023FFF7F7FC2FB112
:405F000008F1FF383E46B8F1000FBFD1284649465246FFF78FFF13E02946324601232046FFF7BAFE29460746324620460023FFF7DDFC2FB108F1FF383E46B8F1000FEBD1A6
:405F40004046BDE8F88F0AF1010B5F45BFD1C5E72DE9F845044601F041F8054608B9044696E0204600F083FF4B4E338A834208D338B1002120462A460B4600F0D0FE002810
:405F800004DA284601F040F8002481E005F5FF7000F00AFE4AF65523984275D105F10B0000F002FE10F47E4F07466DD0338A83426AD32B7C022B67D16E7B002E64D000212B
:405FC0003C2204F1180000F05BFD05F1130000F0EBFD804620B905F1200000F0CCFD804605F1160000F0E0FD824680B905F1280000F0DAFD10F08F0F46D105F1240000F05B
:40600000BAFD824605F12C0000F0B5FDE062022384F83530C4F828A0C4F8188084F8346005F10E0000F0C0FD608605F1110000F0BBFD638E94F83520208602FB0A3A7B096A
:406040009BB2B0FBF3F05044A7832062092301229A40BA4201D1E38302E00133102BF6D17743C0EB0800B0FBF6F0A0636762FFF71EFB4FF0FF33202884F8360018BFC4F8B9
:406080002CA0E363012400E00024284600F0BCFF2046BDE8F88500BFD8D3FF1F00238B60837F202B01D102B942694A600A60704783680133836070472DE9F0410C4620218B
:4060C00005461F469DF818604FF0000800F0D8FC10E014F8080036B9E52804D1B8F1000F01D1E03802E000F029FDC0B205F8080008F10108B845ECDBBDE8F0812DE9F745C4
:4061000006460D4608462849002A14BF92464FF0FF3A00F0EBFC804650B930462946022200F0CCFEB01C2021092200F0A9FC37E000274FF0FF3415F80780B8F1000F01D0B1
:40614000574505D1B4F1FF3F08BF3C4664B925E04046FFF7BFFA08B3B8F12E0F08BF3C4601370D2FE7D119E0082C17DC3F1B042F14DC30462946082223464FF00008CDF8F3
:406180000080FFF799FF0123611C009306F10800691803227B1EFFF78FFF01E04FF001084046BDE8FE8500BFA49B00002DE9F74FD2F808B0436A4FEA4B18B8FBF3F8D36806
:4061C000054698450E461446D2F8009001D20023D360B5F81EA0E368AAF1050A0BB9D4F804902BFA0AF7B9F1000F17D095F83420B8EB0303019206D04A4628463146FFF79E
:406200004BFD814640B3494605F11800FFF75CFA019B591E01EA0707C11906E02B8E43FA0AF39F4218D2E96A79183046C4F80090C4F80C80012201F071F8304601F095F88A
:4062400050B9013000FA0AFAB3680AF1FF3A0AEA0B0B03EB4B1000E00020BDE8FE8F2DE9FF4107460E4601A811461A460A9D9DF82C40FFF743FFC8B9384631462A46FFF7FF
:4062800095FF8046A0B1037883B101A90B2200F0E7FB38B998F80B3004EA0302A24201D1082B05D12846FFF703FFE5E74FF00008404604B0BDE8F0812DE9F04587B002AF71
:4062C00004460E46154698469DF83CA039460E9A1830FFF7E3FE204631462A4643460097CDF804A0FFF7BBFF07B0BDE8F0852DE9F04500F1180785B005460C46384669465F
:406300009246FFF7CBFE284621466A46FFF74EFF06466846E846FFF7CBFE002E37D1BAF1000F02D12B8E002B35D12146009A00232846FFF7BDFC2146024600232846FFF7F3
:4063400069FD8046204601F00CF8B8F1000F22D0AA8B0021A06800F093FB38464146FFF7B3F995F8347000257E1E361808E031462046012200F0D2FF204600F0ABFF013E41
:4063800001357B1BB3F1FF3FF1D1A66803E033780BB1E52BB7D1304605B0BDE8F08538B504461A3000F000FC054604F1140000F0FBFB45EA004038BD2DE9F0451D4685B04A
:4063C00007460E462A6010465C21904600F0BDFB4FF0000A0446A04508D108F10108C5F8008040465C2100F0B0FB044694B1C8EB0403002B0EDD10220192103A0292384673
:4064000031464246CDF800A0FFF7DEF970B1FFF7C6FF824628685C2100F097FBA04604460028D8D10C9B0130C3F800A005B0BDE8F085F8B505460C461E461746DAB16FF000
:406440001A031370084600F0F3FD16B94FF47A7608E007F11C0000F08EFB6B6A5E1E3618B6FBF3F63846FFF79AFF2146024633462846FFF7FDFC607BF8BD00002DE9F04F27
:40648000D1F8008093B0D8F808700BAD044608930E464FF0FF333946284609920F939DF870A000F009FE10AB009338462946224611ABFFF781FFD0B1F27A109B07920FAA21
:4064C00000930292002338462946119A0193FFF77BF9044680B1C37A13F0100F07D10D9BDDF82CB0C3EB00094FEA691906E0284600F02EFF0125A3E083468146099B002BC6
:406500003CD0002C33D0524B5D6912E02B687BB1AA7A6AB19A8B4A450AD19A695A4507D19B68BB4204D14FF6F772328100257EE0ED68002DEAD10DF12C0C6146384622460B
:406540000123CDF818C0FFF774FFDDF818C018B14FF0FF3333816AE03E4B1B68DC6824B138466146109A0F9BA0472C4606E0BAF1000F03D1089A002A44D065E0089BEBB13D
:40658000CCB1E37A13F0010F0BD0079A12F0150F07D04FF6FA733381BAF1000F01D1012500E000252046FFF7FAFE074604F11C0000F0E1FA29E0BAF1000F45D0BAF1010F48
:4065C00001D000251BE0ECB901F07AFB214B20221B68019282B2000C03920490009402949D6838460BA9119A109BA84750B10D9ADDF82CB0C2EB00094FEA69192546284629
:406600002F4602E00125002007464FF0FF33C8F81030C8F818B0A8F81C90079AC8F8040012F0010308BF1846C8F800707060B6F908300BA835EA230528BF012500F088FE37
:40664000284613B0BDE8F08F01255046DCE700BFD8D3FF1F3C81FF1F70B505460C461A3089B200F09DFA05F11400210CBDE8704000F096BA2DE9F0470446BDF824700D4616
:406680009146002120229A46BDF82860DDF8208000F0F6F90B222046294600F00FFC04F10E00394684F80BA000F07AFA04F11000314600F075FA04F11600394600F070FA66
:4066C00004F11800314600F06BFA20464946FFF7C3FF04F11C004146BDE8F04700F056BA704707B5426803460AB910460AE081680020009048681968DB6800F055FB0038B2
:4067000018BF01200EBD00002DE9F047046805460F46A668FFF77CFA81468246002841D0D4F80080B8F1000F1BD14246304639462B46FFF71BFB0246D8B11C4B6061C4F85C
:40674000108093F87C302060022B07D030463946FFF775F910B10120BDE8F087B9F1010A20D03046394662692B46FFF7FFFA804628B94FF6FE732B810130BDE8F0870B4B06
:4067800093F87C30022B05D03046394662694346FFF777F92369C4F8148001332361BAF1010ADDE70020BDE8F08700BFD8D3FF1F2DE9F041836804460D4608460122A169D5
:4067C0009E8B00F0ABFD2846B4F81C80AF6800F0CCFDF8B9013E06EA4816B6B2BE1906F11C00616800F0D2F921683046FFF734FF01F066FA0446A1B206F1160000F0D0F962
:4068000006F11800210C00F0CBF92846BDE8F04100F0A7BDBDE8F0817FB50668B0F90830B568C3B9C37A13F0110F14D02946684600F042FC30466946FFF7BAFF064B6C4638
:4068400093F87C30022B03D128466946FFF7FBF8684600F07DFD7FBDD8D3FF1F03682DE9F04F9F68038995B001339BB2012B04460E46059201D90025CEE0394610AD0CA8A6
:4068800000F01AFC3946284600F016FC039626680023D6F808909A4609F118010791D9F82420059906924FF0FF32099308920A950291049320460CA9FFF726FF38B108A81F
:4068C000FFF70FFF5546002818BF00258FE03269069901324A43B9F81CB063680BF1FF3BD21A0BEA030B029B0798934228BF134601937169FEF7E8FE99F83430B9F81C2083
:406900006768013BB7FBF2F703EA0707C719B9F81C300199CBEB03058D4228BF0D469D4228D0BBF1000F03D1626873689A420FD00DF1400840463946002200F0EFFC4046E4
:4069400000F013FD20B14FF6F9725546228154E01298039958442A460DF1400800F0AEFA40463946002200F0D9FC404600F0B2FC90B141E0099B089A9A1897420AD008A827
:40698000FFF7AFFE002837D101230993039B08970B9301E001330993029B03995B1B019A029363684919521BAA44ED186560736803919D42019207D91BB1194B93F87C305F
:4069C0000BB9012104917560019A1AB101374FF0000B9CE7029B002B7FF46CAF08A8FFF780FE04995546002818BF002529B1304610A9FFF7DDFE00E05546059A954205D066
:406A0000B4F9083013B94FF6F87323810CA800F09FFC10A800F09CFC284615B0BDE8F08FD8D3FF1F37B54FF0FF3469468DF8074000F0D8FC054670B100F056FE10F0010F55
:406A400009D0284600990DF10702012300F089FF08B18DF807409DF807003EBDFFF7E2BF10B5002308E0C45C11F803C0013A0133644501D0012010BD002AF4D1104610BD3B
:406A800070B5034602E003F8011C013A1C4622B103F003050133002DF5D193081ED04FF001354D4308E044F8105C44F80C5C44F8085C44F8045C043B032BA44604F110047E
:406AC000F1DC1C46002603E04CF80650013B0436002BF9D102F003020CEB8404002302E0E154013A0133002AFAD170BD002310F803C0CA5C624501D0012070470133002A56
:406B0000F5D110467047002300E00133C25C002AFBD11846704710B500230BE0C45C11F803C0644501D0012010BDC4186478013314B1013A002AF1DC002010BDA0F1610336
:406B4000192B98BF00F0DF007047C9B203E00BB918467047013003788B42F8D1704742780178431C42EA01205A789B7842EA002043EA002070478378C27803EB02224378AE
:406B800003EB0222037803EB0220704703460A0A03F8011B42700A0C090E5A70997070470170090A417070474278037843EA022070470000094A0A4BC11C10B5146821F0A6
:406BC000030118680919814201D9002010BD11609A685868013220189A6010BD58D4FF1FEC81FF1F08B5FFF7E5FF00B9FEE708BDFFF7E0BF30B1044A9368013B93600BB97F
:406C0000024A1360704700BFEC81FF1F58D4FF1F014B586019607047EC81FF1F38B50546FFF7E0FF002104462A46FFF729FF204638BD000010B5084CA37C0BB1002010BD49
:406C40004FF40073238201F02BF8A37C012043F00103A37410BD00BFD8D3FF1F13B501A900F0C0FB044640B100F03EFD032804D12046019900F0EAFD01E04FF0FF301CBD40
:406C8000FFF7ECBF08B583680BB10020984708BD08B583680BB10120984708BD10B504680079A468A04710BD37B59DF81850046800790095E468A0473EBD08B50368007946
:406CC0009B69984708BD036810B55B69044623B10079984708B1002000E00120607110BD10B5437904460BB9FFF7EDFF607910BDF7B504461F460E461546FFF7F1FF20469D
:406D0000FFF7C6FF2A463146012320460097FFF7C5FF05462046FFF7B5FF2846FEBD10B504690919BDE81040FFF7E2BF2DE9F341044615461F460E469DF82080FFF7D0FFD0
:406D40002046FFF7A5FF2B4631463A462046CDF80080FFF7A3FF05462046FFF793FF2846BDE8FC8130B504699DF80C5009190395BDE83040FFF7DABFF7B5044615461F4648
:406D80000E46FFF7ADFF2046FFF782FF0023009331462B463A462046FFF786FF05462046FFF770FF2846FEBD30B504699DF80C5009190395BDE83040FFF7DEBFF7B5044627
:406DC00015461F460E46FFF78BFF2046FFF760FF0123009331462B463A462046FFF764FF05462046FFF74EFF2846FEBD30B504699DF80C5009190395BDE83040FFF7DEBFA4
:406E000073B504460E461546FFF76AFF2046FFF73FFF00232A460093314601332046FFF743FF05462046FFF72DFF002D14BF4FF0FF3000207CBD10B504690919BDE81040E6
:406E4000FFF7DEBF2DE9F0411F46A1F57C73012B04460E469046056801D9FFF741FF2D692079314642463B46A847BDE8F08130B5054685B0FFF734FF2B6828791C694FF4F3
:406E80007B71002201ABA04708B1002001E0BDF80C0005B030BD70B506460D46FFF720FF336830791C694FF47B7100222B46A047002814BF4FF0FF30002070BD11F0030F00
:406EC00070B584460B4632D110F0030F2FD195100446AC4611E053F8106CACF1040C44F8106C53F80C6C44F80C6C53F8086C44F8086C53F8046C44F8046C10341033BCF1BE
:406F0000030FE8D8AB081B0100EB030CCB1815F003050AD0284600215C584CF8014004310138F9D1AD00AC445B1902F0030213F0010F19462FD11CF0010F60462BD1541050
:406F4000254610E031F8086C043D20F8086C31F8066C20F8066C31F8046C20F8046C31F8026C20F8026C08300831032DEAD8A108C9005B1814F003048C440AD02046002165
:406F80005D5A2CF8015002310138F9D16400A4441B1902F00102614610E013F8040C043A01F8040C13F8030C01F8030C13F8020C01F8020C13F8010C01F8010C184604330C
:406FC000032A8C4601F10401E7DC32B10023C15C0CF8031001339342F9D170BD094B10B5D8689A68002308E0114652F8084B1CB901230B60486810BD01338342F4D3002083
:4070000010BD00BFD8D3FF1F084B30B50022DC689B6808E05D6819460833854202D100230B6030BD0132A242F4D330BDD8D3FF1F01230373704700230373704710B10022E6
:4070400082720260704718B1027B0AB1013A027370470000014B83F87C007047D8D3FF1F38B5FFF7E7FD20B3124C4200E2600001FFF7D4FD238AA060E0685843FFF7CEFD43
:40708000A568E168228A002304E005EBC3046060013380188B42F8D31020FFF7BFFD054C60612820FFF7BAFDA37CA06143F00203A37438BDD8D3FF1F38B510220D46002143
:4070C0000446FFF7DDFCFFF789FF08B9013038BDA0604FF0FF33002065602360A07338BD38B5837A044643B10568FFF795FB2846FFF7A9FF2046FFF7A1FF002038BD08B53C
:407100000368827A03B19B6822B11BB1FFF7E8FF002008BD012008BD08B901307047FFF7EEBF000038B5104B9C69217B59B921606160A16004F110001422FFF7A1FC237BF4
:40714000013323730DE0656A45B92820FFF750FD606218B129462822FFF792FC646A002CE3D1204638BD00BFD8D3FF1F38B50E4B5C69A17AE56839B920461022FFF780FC38
:407180000123A372E5600CE045B91020FFF730FDE06018B129461022FFF772FCE468002CE7D1204638BD00BFD8D3FF1F2DE9F74F06460020884691469B469DF830A09DF8AB
:4071C0003470FFF7AFFF054608B9044610E0FFF7CDFF044660B180F80B900560AE604046214652463B46CDF800B0FFF747F930B12046FFF723FF2846FFF725FF002420463C
:40720000BDE8FE8F2DE9FF410C461F4604A9002341F8043D15469DF8286000F0E3F88046B8B1039B0BB11B789BB1404600F05CFA00280EDD14F0150F01D0032809D10399A1
